:100000000C942B000C9453000C9453000C945F013F
:100010000C9453000C9453000C9453000C94530014
:100020000C9453000C9453000C943B010C94670007
:100030000C9453000C9453000C9453000C945300F4
:100040000C9453000C9453000C9453000C945300E4
:100050000C945300C70411241FBECFE5D4E0DEBFCB
:10006000CDBF10E0A0E6B0E0ECE3FAE002C00590FE
:100070000D92AE39B107D9F711E0AEE9B0E001C099
:100080001D92AB34B107E1F710E0C6E5D0E004C043
:100090002297FE010E941805C435D107C9F70E94B6
:1000A00075020C941C050C9400005E9AFC01808182
:1000B0008CB95E9BFECF0895909365008093640099
:1000C000C39880916400909165009FB908951F9234
:1000D0000F920FB60F9211242F933F934F938F934C
:1000E0009F93EF93FF934CB15C994FC0E09148010F
:1000F000F0914901EA51FF4F40838091480190916E
:1001000049010196909349018093480180369105F9
:1001100021F4109249011092480120914801309138
:10012000490180914601909147012817390729F428
:100130001FC0109247011092460180914A01E82F9A
:10014000F0E0E656FF4F908149130FC08F5F809318
:100150004A018430D1F428E088E190E00FB6F894A9
:10016000A89581BD0FBE21BD10C010924A010DC0DF
:1001700080914601909147010196909347018093A9
:10018000460180369105C9F6D4CFFF91EF919F913A
:100190008F914F913F912F910F900FBE0F901F9015
:1001A00018958091A000982F9F5F9093A0008823BE
:1001B00021F0813009F05EC009C08FB18093A100A9
:1001C00080916400909165008FB90895C39A2FB112
:1001D0009091A10080E0822B209162003091630019
:1001E000203F4FEF3407F9F02F3F3F4F61F59C015F
:1001F000227033272093A200959587959595879532
:100200009C013F703093A4002093A3002091A20092
:1002100088279073892F990F990B85958595282BA1
:100220002093A20010C04091A2009C0122703327AD
:10023000422B4093A20095958795959587958F734E
:1002400099278093B5001092A0008091640090914E
:1002500065009093630080936200809164009091A8
:100260006500019621F480EF9FEF0C945C0081E023
:1002700080939F0008951F920F920FB60F92112442
:100280002F933F934F935F936F937F938F939F939E
:10029000AF93BF93EF93FF930E94D100FF91EF9133
:1002A000BF91AF919F918F917F916F915F914F918E
:1002B0003F912F910F900FBE0F901F9018951F9296
:1002C0000F920FB60F9211242F933F934F935F938A
:1002D0006F937F938F939F93AF93BF93EF93FF930E
:1002E00080919E00882339F080E097EE0E945C00A8
:1002F00010929E0004C08FEF9FEF0E945C00FF9160
:10030000EF91BF91AF919F918F917F916F915F918D
:100310004F913F912F910F900FBE0F901F90189506
:100320001F93CF93DF931F92CDB7DEB7182F99831A
:10033000CE0101960E9455001983CE0101960E94BC
:1003400055000F90DF91CF911F9108951F93CF9388
:10035000DF9300D01F92CDB7DEB7182F9983CE015F
:1003600001966B837A830E9455001983CE01019612
:100370000E9455007A817983CE0101960E94550032
:100380006B816983CE0101960E9455000F900F90FA
:100390000F90DF91CF911F9108950F931F93FC0150
:1003A0000181128183819481081B190BC80117FFF9
:1003B00004C088279927801B910B813098407CF0DE
:1003C00017FF05C0838194810181128104C081815E
:1003D000928103811481081B190B0150104F8181F8
:1003E000928194838383C80117FF04C088279927CB
:1003F000801B910B049714F400E010E045815681B6
:1004000067817085222717FD2095322F400F511FDD
:10041000621F731F4583568367837087058116812A
:10042000278130854185528563857485041B150BB2
:100430001687058745815681678170854187528778
:10044000638774878585968527853089821B930B02
:10045000928B818B85859685908B87871F910F91D5
:100460000895CF93DF93FC01DB018081EF01C80F7A
:10047000D11D11969C9111979A83982F9F5F90831D
:10048000EF01C90FD11D9C919A838E5F8083DF910C
:10049000CF9108950F931F93CF93DF938C01EB01BE
:1004A00003C0CF010E945500FE0121968081811179
:1004B000F8CFC801DF91CF911F910F910895CF938D
:1004C000DF93FC0110A2DB0180A1803251F09D91ED
:1004D000992339F0EF01C80FD11D98838F5F80A356
:1004E000F3CFCF01DF91CF910895CF93DF93CDB7B5
:1004F000DEB7C355D1090FB6F894DEBF0FBECDBF2E
:10050000C398BB9AC69ABD9ABF9AC49A87ED8DB913
:1005100082E08BB988E98AB986E880BD10BC89E1A0
:1005200089B980B589B18FEC97E00197F1F700C0E8
:10053000000078948FEF9FEF0E945C0066E670E009
:1005400087EB90E00E944A0266E670E00E944A0251
:1005500069E670E00E944A0266E670E00E944A0284
:1005600066E670E087EB90E00E944A0266E670E083
:100570000E944A026FE670E00E944A0266E670E05E
:100580000E944A0280919F008823E1F366E670E0B2
:1005900087EB90E00E944A0266E670E00E944A0201
:1005A00065E770E00E944A0266E670E00E944A0237
:1005B00082EA90E00E94CD0166E670E087EB90E071
:1005C0000E944A0266E670E00E944A026BE770E011
:1005D0000E944A0266E670E00E944A021092A2005F
:1005E0008091A3009091A4009093A6008093A50011
:1005F0001092A7001092A8001092A9001092AA00D1
:100600001092AB001092AC001092AD001092AE00B0
:100610001092B0001092AF001092B2001092B10090
:100620001092B4001092B30066E670E087EB90E0A1
:100630000E944A0266E670E00E944A0261E870E0A9
:100640000E944A0266E670E00E944A0210929F00F1
:1006500066E670E087EB90E00E944A0266E670E092
:100660000E944A0267E870E00E944A0266E670E073
:100670000E944A0280E583BD89B7806889BF8DE00A
:1006800085BD66E670E087EB90E00E944A0266E670
:1006900070E00E944A026DE870E00E944A0266E63D
:1006A00070E00E944A0288E08093B90019A262E9D2
:1006B00070E0CE0101960E945F021BA21AA219AE41
:1006C00018AEF12CD12C00E011E0EE24EA948091D8
:1006D0009F00811114C08091E2009091E300DC0141
:1006E000AE59BF4F4D915C911197FC01E05AFF4FFD
:1006F000208131814217530709F028C1E8CF82EAEF
:1007000090E00E94CD0110929F00112321F31AA2C4
:100710008091A3009091A40064969FAF8EAF6497E0
:10072000BE016E5A7F4FCE0182960E9431028091A7
:10073000A7009091A800A091A900B091AA002AA1B9
:10074000E4E2F0E0EC0FFD1FE20FF11DB083322F69
:100750003F5FE4E2F0E0EC0FFD1FE30FF11DA0832B
:100760003F5FE4E2F0E0EC0FFD1FE30FF11D90832B
:100770003F5FE4E2F0E0EC0FFD1FE30FF11D80832B
:100780002C5F2AA38091AF009091B00064969FAF38
:100790008EAF6497BE016E5A7F4FCE0182960E9443
:1007A00031028091B3009091B40064969FAF8EAFF8
:1007B0006497BE016E5A7F4FCE0182960E9431022D
:1007C0009091B5008AA1E4E2F0E0EC0FFD1FE80F84
:1007D000F11D90839091A200282F2F5FE4E2F0E0BA
:1007E000EC0FFD1FE20FF11D90838E5F8AA36396CD
:1007F000EFAE6397CE018E5A9F4F0E9455006396CD
:100800001FAE6397CE018E5A9F4F0E9455008AA15A
:100810008F5F63968FAF6397CE018E5A9F4F0E9472
:1008200055008BA163968FAF6397CE018E5A9F4F71
:100830000E945500C12C10C0E4E2F0E0EC0FFD1F57
:10084000EC0DF11D808163968FAF6397CE018E5AB8
:100850009F4F0E945500C3948AA1C81668F33BCFEE
:1008600011821082FC01E40FF51F608191E0F916FE
:1008700069F0F91640F082E0F816E9F093E0F91219
:1008800008C0062F19C06F3FC1F416C06230A8F42B
:1008900013C08F2D90E0AC01425051092D2D30E056
:1008A0002417350754F0E8E3F0E0EC0FFD1FE80FE4
:1008B000F91F608301C0D62EF394DD2009F407CF21
:1008C0002D2D30E02D5F3F4F8F2D90E028173907F9
:1008D00009F0FDCE55C01092A2008091A300909126
:1008E000A4009093A6008093A5001092A7001092F8
:1008F000A8001092A9001092AA001092AB001092CA
:10090000AC001092AD001092AE001092B0001092A8
:10091000AF001092B2001092B1001092B400109289
:10092000B30010C000939E0080919E008111FCCF07
:1009300080919F008823E1F305C011E08CAD811107
:1009400001C010E0F12CD12C00E0C1CE4D915C91A2
:10095000208131814217530731F40190F081E02D5D
:10096000E80FF91F82CF40815181208131812F5FB3
:100970003F4F318320832036310509F073CF70CF8C
:10098000013081F208F4A7CF0230E1F6D6CF86EE2F
:1009900090E09093B8008093B7001092B9002AE0DD
:1009A0002093BA0020E22093BB002093BC00209348
:1009B000BD0021E02093BE001092E0009093E30080
:1009C0008093E2009093E5008093E4002093BF00C1
:1009D0002093E1001092A2001092A4001092A300B4
:1009E0001092A6001092A5001092A7001092A800E5
:1009F0001092A9001092AA001092AB001092AC00C5
:100A00001092AD001092AE001092B0001092AF00A4
:100A10001092B2001092B1001092B4001092B30084
:100A20001092B50088E08093B6000895EE0FFF1F86
:0C0A30000590F491E02D0994F894FFCF9C
:100A3C00D007FFFFFFFF0A0D00204F4B2032002094
:100A4C004F4B203300204F4B203400204F4B203590
:100A5C0000204F4B203600204F4B203700204F4BAF
:0E0A6C0020003B205F5F5F5F2000747E7A33C6
:00000001FF
