:100000000C942B000C9453000C9453000C945F013F
:100010000C9453000C9453000C9453000C94530014
:100020000C9453000C9453000C943B010C94670007
:100030000C9453000C9453000C9453000C945300F4
:100040000C9453000C9453000C9453000C945300E4
:100050000C945300C10311241FBECFE5D4E0DEBFD2
:10006000CDBF10E0A0E6B0E0E0E3F8E002C005900C
:100070000D92A836B107D9F711E0A8E6B0E001C0AB
:100080001D92A531B107E1F710E0C6E5D0E004C04C
:100090002297FE010E941204C435D107C9F70E94BD
:1000A0000D020C9416040C9400005E9AFC018081F1
:1000B0008CB95E9BFECF089590936300809362009D
:1000C000C39880916200909163009FB908951F9238
:1000D0000F920FB60F9211242F933F934F938F934C
:1000E0009F93EF93FF934CB15C994FC0E091120145
:1000F000F0911301E055FF4F4083809112019091E0
:10010000130101969093130180931201803691059B
:1001100021F41092130110921201209112013091DA
:10012000130180911001909111012817390729F4CA
:100130001FC0109211011092100180911401E82F3C
:10014000F0E0EC59FF4F908149130FC08F5F80930F
:1001500014018430D1F428E088E190E00FB6F894DF
:10016000A89581BD0FBE21BD10C0109214010DC015
:10017000809110019091110101969093110180934B
:10018000100180369105C9F6D4CFFF91EF919F9170
:100190008F914F913F912F910F900FBE0F901F9015
:1001A000189580916A00982F9F5F90936A0088232A
:1001B00021F0813009F05EC009C08FB180936B00DF
:1001C00080916200909163008FB90895C39A2FB116
:1001D00090916B0080E0822B209160003091610053
:1001E000203F4FEF3407F9F02F3F3F4F61F59C015F
:1001F0002270332720936C00959587959595879568
:100200009C013F7030936E0020936D0020916C0034
:1002100088279073892F990F990B85958595282BA1
:1002200020936C0010C040916C009C012270332719
:10023000422B40936C0095958795959587958F7384
:10024000992780937F0010926A00809162009091BC
:1002500063009093610080936000809162009091B0
:100260006300019621F480EF9FEF0C945C0081E025
:100270008093690008951F920F920FB60F92112478
:100280002F933F934F935F936F937F938F939F939E
:10029000AF93BF93EF93FF930E94D100FF91EF9133
:1002A000BF91AF919F918F917F916F915F914F918E
:1002B0003F912F910F900FBE0F901F9018951F9296
:1002C0000F920FB60F9211242F933F934F935F938A
:1002D0006F937F938F939F93AF93BF93EF93FF930E
:1002E00080916800882339F080E097EE0E945C00DE
:1002F0001092680004C08FEF9FEF0E945C00FF9196
:10030000EF91BF91AF919F918F917F916F915F918D
:100310004F913F912F910F900FBE0F901F90189506
:10032000CF93DF93FC01DB018081EF01C80FD11D6A
:1003300011969C9111979A83982F9F5F9083EF015C
:10034000C90FD11D9C919A838E5F8083DF91CF91DD
:1003500008950F931F93FC01018112818381948181
:10036000081B190BC80117FF04C088279927801B99
:10037000910B813098407CF017FF05C083819481F8
:100380000181128104C08181928103811481081B43
:10039000190B0150104F8181928194838383C8018E
:1003A00017FF04C088279927801B910B049714F42A
:1003B00000E010E04581568167817085222717FD96
:1003C0002095322F400F511F621F731F45835683A4
:1003D0006783708705811681278130854185528525
:1003E00063857485041B150B168705874581568127
:1003F0006781708541875287638774878585968575
:1004000027853089821B930B928B818B85859685FE
:10041000908B87871F910F910895CF93DF93CDB76E
:10042000DEB7E2970FB6F894DEBF0FBECDBFC3981C
:10043000BB9AC69ABD9ABF9AC49A87ED8DB982E0DD
:100440008BB988E98AB986E880BD10BC89E189B991
:1004500080B589B18FEC97E00197F1F700C00000FB
:1004600078948FEF9FEF0E945C0080916900882351
:10047000E1F38CE690E00E94A90110926C0080915B
:100480006D0090916E009093700080936F001092B9
:10049000710010927200109273001092740010920A
:1004A00075001092760010927700109278001092EA
:1004B0007A001092790010927C0010927B001092CA
:1004C0007E0010927D001092690080E583BD89B79F
:1004D000806889BF8DE085BD1A821982188E1F8AB7
:1004E000F12CD12C00E011E0EE24EA948091690017
:1004F000811114C08091AC009091AD00DC01AE5927
:10050000BF4F4D915C911197FC01E05AFF4F208144
:1005100031814217530709F013C1E8CF8CE690E010
:100520000E94A90110926900112321F31982809180
:100530006D0090916E009AAB89ABBE016F5C7F4FEE
:10054000CE0101960E9490018091710090917200FD
:10055000A0917300B09174002981E3E0F0E0EC0F0A
:10056000FD1FE20FF11DB083322F3F5FE3E0F0E0AB
:10057000EC0FFD1FE30FF11DA0833F5FE3E0F0E010
:10058000EC0FFD1FE30FF11D90833F5FE3E0F0E010
:10059000EC0FFD1FE30FF11D80832C5F29838091F9
:1005A000790090917A009AAB89ABBE016F5C7F4F66
:1005B000CE0101960E94900180917D0090917E0075
:1005C0009AAB89ABBE016F5C7F4FCE0101960E9452
:1005D000900190917F008981E3E0F0E0EC0FFD1F36
:1005E000E80FF11D908390916C00282F2F5FE3E0BE
:1005F000F0E0EC0FFD1FE20FF11D90838E5F898309
:10060000E9AACE01C1960E94550019AACE01C19651
:100610000E94550089818F5F89ABCE01C1960E94EF
:1006200055008A8189ABCE01C1960E945500C12C2C
:100630000DC0E3E0F0E0EC0FFD1FEC0DF11D80813B
:1006400089ABCE01C1960E945500C3948981C8161A
:1006500080F350CF11821082FC01E40FF51F6081FE
:1006600091E0F91669F0F91640F082E0F816E9F029
:1006700093E0F91208C0062F19C06F3FC1F416C0ED
:100680006230A8F413C08F2D90E0AC0142505109A4
:100690002D2D30E02417350754F0E7E1F0E0EC0FA2
:1006A000FD1FE80FF91F608301C0D62EF394DD20F3
:1006B00009F41CCF2D2D30E02D5F3F4F8F2D90E0A2
:1006C0002817390709F012CF55C010926C0080919D
:1006D0006D0090916E009093700080936F00109267
:1006E00071001092720010927300109274001092B8
:1006F0007500109276001092770010927800109298
:100700007A001092790010927C0010927B00109277
:100710007E0010927D0010C00093680080916800F8
:100720008111FCCF809169008823E1F305C011E0BD
:100730008B8D811101C010E0F12CD12C00E0D6CEC0
:100740004D915C91208131814217530731F4019022
:10075000F081E02DE80FF91F82CF40815181208187
:1007600031812F5F3F4F318320832036310509F0DF
:1007700073CF70CF013081F208F4A7CF0230E1F6D9
:10078000D6CF80EB90E0909382008093810010920E
:1007900083002AE02093840020E2209385002093A8
:1007A00086002093870021E0209388001092AA0001
:1007B0009093AD008093AC009093AF008093AE0017
:1007C000209389002093AB0010926C0010926E0071
:1007D00010926D001092700010926F0010927100D4
:1007E00010927200109273001092740010927500B3
:1007F00010927600109277001092780010927A0092
:100800001092790010927C0010927B0010927E0072
:1008100010927D0010927F0088E080938000089500
:10082000EE0FFF1F0590F491E02D0994F894FFCF8F
:08083000FFFFFFFF747E7A3325
:00000001FF
